:1000000099C00000B6C00000B4C00000B2C000003B
:10001000B0C00000AEC00000ACC00000AAC000002C
:10002000A8C00000A6C00000A4C00000A2C000003C
:10003000A0C000009EC000009CC000009AC000004C
:1000400098C0000096C0000094C0000092C000005C
:1000500090C000008EC000008CC000008AC000006C
:1000600088C0000086C0000084C0000082C000007C
:1000700080C000007EC000007CC000007AC000008C
:1000800078C0000076C0000074C0000072C000009C
:1000900070C000006EC000006CC000006AC00000AC
:1000A00068C0000066C0000064C0000062C00000BC
:1000B00060C000005EC000005CC000005AC00000CC
:1000C00058C0000056C0000054C0000052C00000DC
:1000D00050C000004EC000004CC000004AC00000EC
:1000E00048C0000046C0000044C0000042C00000FC
:1000F00040C000003EC000003CC000003AC000000C
:1001000038C0000036C0000034C0000032C000001B
:1001100030C000002EC000002CC000002AC000002B
:1001200028C0000026C0000024C0000022C000003B
:1001300020C0000011241FBECFEFD1E8DEBFCDBF2D
:1001400000E00CBF12E0A0E0B2E0E4EAFAE000E078
:100150000BBF02C007900D92AE3EB107D9F723E066
:10016000AEEEB2E001C01D92A73FB207E1F70CD09E
:1001700097C446CF80E096E9FFD083E192E0909368
:10018000F4038093F3030895F5DF2FEF39E688E158
:10019000215030408040E1F700C0000081E292E051
:1001A0009F938F937FD1809112028F938091110240
:1001B0008F9301E312E01F930F9374D1809110028B
:1001C0008F9380910F028F93CBE3D2E0DF93CF9395
:1001D00069D185E492E09F938F9364D180910F025F
:1001E0009091100202979093100280930F028091D9
:1001F00012028F93809111028F931F930F9352D10C
:10020000809110028F9380910F028F93DF93CF9391
:1002100049D182E592E09F938F9344D120910E02C1
:1002200080910D0290E0820F911D9093A003809326
:100230009F039F938F9382E692E09F938F9332D197
:100240008CE692E09F938F932DD180910B02909139
:100250000C0295958795959587959595879590939B
:100260000C0280930B029F938F938CE792E09F93F5
:100270008F9318D180910B0290910C02019790936B
:100280000C0280930B022DB73EB7205E3F4F0FB696
:10029000F8943EBF0FBE2DBF9F938F938EE892E0E0
:1002A0009F938F93FFD080910B0290910C028270EC
:1002B000992790930C0280930B029F938F938FE961
:1002C00092E09F938F93EED082EB92E09F938F9377
:1002D000E9D060E072E08FE493E0BAD04AE06EE3E8
:1002E00073E08091090290910A02B9D0BC018FE4B9
:1002F00093E0A3D08FE493E09F938F93C2ECD2E07E
:10030000DF93CF93CFD080910A028F93809109021F
:100310008F9380E092E09F938F9388EC92E09F937D
:100320008F9301EA13E01F930F93CFD01F930F9386
:10033000DF93CF93B7D08DEC92E09F938F93B2D0A1
:100340008DED92E09F938F93ADD082E083BB84BB11
:100350008DB79EB74E960FB6F8949EBF0FBE8DBF59
:1003600042E02FEF3FEF44BBC9010197F1F714BA08
:10037000C9010197F1F7F7CF9C0140E050E060E23E
:1003800071EA87E090E01BD0215031093093CD0015
:100390002093CC00E9ECF0E088E1808386E0809354
:1003A000CA008081806880830895E8ECF0E0908145
:1003B00095FFFDCF8093CE0080E090E00895052E5C
:1003C00097FB16F400940FD057FD05D014D007FC0E
:1003D00002D046F408C050954095309521953F4F86
:1003E0004F4F5F4F089590958095709561957F4F21
:1003F0008F4F9F4F0895A1E21A2EAA1BBB1BFD0130
:100400000DC0AA1FBB1FEE1FFF1FA217B307E407F3
:10041000F50720F0A21BB30BE40BF50B661F771F4B
:10042000881F991F1A9469F760957095809590952B
:100430009B01AC01BD01CF010895FB01DC010D90D2
:100440000020E9F7119701900D920020E1F708953F
:10045000FB01DC0101900D920020E1F70895BB271C
:100460004A3031F4992322F4BDE2909581959F4F53
:1004700001C0BB27FB015527AA27880F991FAA1F78
:10048000A41710F0A41B83955051B9F7A05DAA33AF
:1004900008F0A95DA193009779F7B111B19311927A
:1004A000CB0154C2CF93DF93CDB7DEB7AE014A5F25
:1004B0005F4FFA0161917191AF018091F3039091C7
:1004C000F40331D0DF91CF9108950F931F93CF9311
:1004D000DF93CDB7DEB72E970FB6F894DEBF0FBE11
:1004E000CDBF0E891F8986E08C831A8309838FEF25
:1004F0009FE79E838D83AE01465E5F4F688D798D49
:10050000CE01019610D0EF81F885E00FF11F108227
:100510002E960FB6F894DEBF0FBECDBFDF91CF9100
:100520001F910F9108952F923F924F925F926F9279
:100530007F928F929F92AF92BF92CF92DF92EF9273
:10054000FF920F931F93CF93DF93CDB7DEB72B9717
:100550000FB6F894DEBF0FBECDBF6C017B018A01E0
:10056000FC0117821682838181FFBFC1CE010196F3
:100570003C01F6019381F70193FD859193FF8191F1
:100580007F01882309F4ADC1853239F493FD85914B
:1005900093FF81917F01853221F4B60190E0E6D18D
:1005A000E8CF912C212C312CFFE1F315D8F08B32C0
:1005B00079F038F4803279F08332A1F4232D206170
:1005C0001DC08D3261F0803369F4232D216016C087
:1005D000832D8260382EE32DE4603E2E2AC0F32D59
:1005E000F8601DC037FC2DC020ED280F2A3040F0E8
:1005F0008E32B9F436FC75C1232D2064322E19C019
:1006000036FE06C08AE0989E200D1124922E11C05D
:10061000EAE02E9E200D1124222EF32DF0623F2EB3
:1006200008C08C3621F4832D8068382E02C08836AD
:1006300041F4F70193FD859193FF81917F01811131
:10064000B3CF982F9F7D9554933028F40C5F1F4FA4
:100650009FE399830DC0833631F0833771F0833582
:1006600009F055C020C0F801808189830E5F1F4FBB
:1006700088248394912C530112C02801F2E04F0E7C
:10068000511CF801A080B18036FE03C0692D70E0D6
:1006900002C06FEF7FEFC5014ED14C018201F32DF7
:1006A000FF773F2E15C0280122E0420E511CF801B1
:1006B000A080B18036FE03C0692D70E002C06FEFEC
:1006C0007FEFC5012DD14C01F32DF0683F2E820143
:1006D00033FC19C0822D90E088169906A0F4B6016B
:1006E00080E290E043D12A94F5CFF50137FC859163
:1006F00037FE81915F01B60190E038D121102A9434
:1007000021E0821A91088114910479F7E1C08436BE
:1007100011F0893639F5F80137FE07C06081718123
:10072000828193810C5F1F4F08C060817181072E09
:10073000000C880B990B0E5F1F4FF32DFF763F2E99
:1007400097FF09C090958095709561957F4F8F4F69
:100750009F4FF0683F2E2AE030E0A30143D1882E5E
:10076000861844C0853731F4232D2F7EB22E2AE01F
:1007700030E025C0932D997FB92E8F36C1F018F443
:10078000883579F0AEC0803719F0883721F0A9C0DC
:10079000E92FE061BE2EB4FE0DC0FB2DF460BF2E2C
:1007A00009C034FE0AC0292F2660B22E06C028E0F8
:1007B00030E005C020E130E002C020E132E0F80185
:1007C000B7FE07C060817181828193810C5F1F4FEA
:1007D00006C06081718180E090E00E5F1F4FA30131
:1007E00001D1882E8618FB2DFF773F2E36FE0DC0D7
:1007F000232D2E7FA22E891458F434FE0BC032FC18
:1008000009C0832D8E7EA82E05C0B82CA32C03C052
:10081000B82C01C0B92CA4FE0FC0FE01E80DF11DDB
:100820008081803321F49A2D997EA92E09C0A2FEE1
:1008300006C0B394B39404C08A2D867809F0B394AB
:10084000A3FC10C0A0FE06C0B21480F4280C922CA9
:100850009B180DC0B21458F4B60180E290E086D027
:10086000B394F8CFB21418F42B1802C0982C212C92
:10087000A4FE0FC0B60180E390E078D0A2FE16C0BF
:10088000A1FC03C088E790E002C088E590E0B601D3
:100890000CC08A2D867851F0A1FE02C08BE201C007
:1008A00080E2A7FC8DE2B60190E060D0891430F4BC
:1008B000B60180E390E05AD09A94F8CF8A94F3017D
:1008C000E80DF11D8081B60190E050D08110F6CF87
:1008D000222009F44ECEB60180E290E047D02A945F
:1008E000F7CFF6018681978102C08FEF9FEF2B969D
:1008F0000FB6F894DEBF0FBECDBFDF91CF911F9131
:100900000F91FF90EF90DF90CF90BF90AF909F90AE
:100910008F907F906F905F904F903F902F900895B1
:10092000FC010590615070400110D8F780959095BA
:100930008E0F9F1F0895FC016150704001900110BF
:10094000D8F7809590958E0F9F1F0895DC01FC01CC
:10095000672F71917723E1F7329704C07C916D93F3
:1009600070836291AE17BF07C8F308950F931F936A
:10097000CF93DF93FB01238121FD03C08FEF9FEF16
:100980002CC022FF16C04681578124813581421731
:10099000530744F4A081B1819D012F5F3F4F318304
:1009A00020838C93268137812F5F3F4F37832683A7
:1009B00014C08B01EC01FB010084F185E02D199539
:1009C000892BE1F6D80116968D919C911797019687
:1009D00017969C938E931697CE01DF91CF911F911E
:1009E0000F910895FA01AA27283051F1203181F1A1
:1009F000E8946F936E7F6E5F7F4F8F4F9F4FAF4F27
:100A0000B1E03ED0B4E03CD0670F781F891F9A1F39
:100A1000A11D680F791F8A1F911DA11D6A0F711DED
:100A2000811D911DA11D20D009F468943F912AE0F9
:100A3000269F11243019305D3193DEF6CF010895E1
:100A4000462F4770405D4193B3E00FD0C9F7F6CF12
:100A5000462F4F70405D4A3318F0495D31FD4052DA
:100A6000419302D0A9F7EACFB4E0A6959795879570
:100A700077956795BA95C9F700976105710508954F
:100A80009B01AC010A2E06945795479537952795FB
:100A9000BA95C9F7620F731F841F951FA01D089593
:040AA000F894FFCFF8
:100AA400486F646E6F74613D00C8001800FFFF0A50
:100AB400000A000000000300000000D5010000004F
:100AC40000546573745F315F756B6F6C5F340A0D2E
:100AD4000061203D202564200A0D0062203D202570
:100AE40064200A0D0048656C6C6F20776F72640A8D
:100AF4000D00546573745F315F756B6F6C5F350AFD
:100B04000D0065203D202564200A0D005465737492
:100B14005F315F756B6F6C5F360A0D0066203D2098
:100B240066203E3E20333A202564200A0D006620CC
:100B34003D2066202D20313A202564200A0D0066D0
:100B4400203D20662026203078323B202564200A70
:100B54000D00546573745F315F756B6F6C5F370A9A
:100B64000D002573200A0D00257325640054657358
:100B7400745F315F756B6F6C5F380A0D0054657379
:0E0B8400745F315F756B6F6C5F390A0D000096
:00000001FF
