:1000000027C1000045C1000043C1000041C10000FC
:100010003FC10000E6C300003BC1000039C1000041
:1000200037C1000035C1000033C1000031C10000FC
:100030002FC1000042C400002BC1000050C40000CA
:1000400027C1000028C4000023C1000021C1000016
:100050001FC100001DC100001BC1000019C100002C
:1000600017C1000015C1000013C1000011C100003C
:100070000FC100000DC100000BC1000009C100004C
:1000800007C1000005C1000003C1000001C100005C
:10009000D3C30000FDC00000FBC00000F9C0000099
:1000A000F7C00000F5C00000F3C00000F1C0000080
:1000B000EFC00000EDC00000EBC00000E9C0000090
:1000C000E7C00000E5C00000E3C00000E1C00000A0
:1000D000DFC00000DDC00000DBC00000D9C00000B0
:1000E000D7C00000D5C00000D3C00000D1C00000C0
:1000F000CFC00000CDC00000CBC00000C9C00000D0
:10010000C7C00000C5C00000C3C00000C1C00000DF
:10011000BFC00000BDC00000BBC00000B9C00000EF
:10012000B7C00000B5C00000B3C00000B1C00000FF
:10013000AFC000006903E1038203E103E103280388
:100140002E03E10336034E0362039B03AF036E618C
:100150006E00696E660000407A10F35A00A0724E7D
:1001600018090010A5D4E80000E87648170000E45C
:100170000B54020000CA9A3B000000E1F5050000A4
:1001800080969800000040420F000000A086010009
:100190000000102700000000E803000000006400D9
:1001A000000000000A000000000001000000000044
:1001B0002C76D888DC674F0823DFC1DFAE59E1B168
:1001C000B796E5E3E453C63AE651997696E8E6C277
:1001D0008426EB898C9B62ED407C6FFCEFBC9C9F7E
:1001E00040F2BAA56FA5F490055A2AF75C936B6CA0
:1001F000F9676DC11BFCE0E40D47FEF520E6B50094
:10020000D0ED902E0300943577050080841E080001
:1002100000204E0A000000C80C333333330F986EB1
:1002200012831141EF8D2114893BE65516CFFEE66E
:10023000DB18D1844B381BF77C1D901DA4BBE42434
:10024000203284725E228100C9F124ECA1E53D27B1
:1002500011241FBECFEFD1E8DEBFCDBF00E00CBF41
:1002600014E0A0E0B2E0EAE0F7E100E00BBF02C07A
:1002700007900D92A432B107D9F724E0A4E2B4E0CC
:1002800001C01D92AD32B207E1F7BAD10C94830BD5
:10029000B7CEF89480E096E947D3E9ECF0E08081AE
:1002A0008068808381E092E090932A0480932904FF
:1002B00084B1806184B985B1806185B984B180627F
:1002C00084B985B1806285B98DB18F7E8DB98EB1CB
:1002D00080618EB98DB380618DBBEAE6F0E08081EC
:1002E0008260808380818160808378940895CF9339
:1002F000DF938BE12ED38FE092E039D38BE129D3CA
:1003000083E192E034D3CDE1D2E0DF93CF930E943A
:10031000DD0A85E492E09F938F930E94DD0A8EE4CC
:1003200092E09F938F930E94DD0A8AE592E09F936B
:100330008F930E94DD0A8EE792E09F938F930E9435
:10034000DD0A88E892E09F938F930E94DD0A8EE990
:1003500092E09F938F930E94DD0A83EB92E09F933C
:100360008F930E94DD0A85EC92E09F938F930E9409
:10037000DD0A89ED92E09F938F930E94DD0A89EF59
:1003800092E09F938F930E94DD0ADF93CF930E94A8
:10039000DD0A8BE1DED28AE193E0E9D28DB79EB728
:1003A00048960FB6F8949EBF0FBE8DBFDF91CF91D8
:1003B0000895F894109280001092810010928200AB
:1003C00085B1806185B985B1806285B985B1806468
:1003D00085B98EB188608EB978940895F894A0E8B4
:1003E000B0E01C92E1E8F0E01082109282001092DE
:1003F0006F0090938900809388008081886080835B
:100400008081846080838081816080838C9180641E
:100410008C9378940895CF93DF93F894E0EBF0E019
:10042000108221EB30E0D9011C92C0E7D0E01882A5
:10043000BFEF8B9FC001112464E670E027D7609363
:10044000B300808182608083808181608083D90154
:100450008C9187608C93888181608883808180689B
:1004600080837894DF91CF91089584EA8093BC00D3
:100470008091BC008823E4F7089584E98093BC0050
:1004800008958093BB0084E88093BC008091BC00F9
:100490008823E4F7089584EC8093BC008091BC002D
:1004A0008823E4F78091BB00089584E88093BC0022
:1004B0008091BC008823E4F78091BB00089580916F
:1004C000B900887F0895CF93C82FC295CC0FC07E06
:1004D000CCDF86E9D6DFF3DF883129F084E293E0D0
:1004E00046D280E020C081E0CCDFE9DF883229F00D
:1004F00080E393E03CD280E016C08C2FC2DFDFDFC8
:10050000883229F080E393E032D280E00CC080E0B2
:10051000B8DFD5DF883229F080E393E028D280E08D
:1005200002C0ABDF81E0CF910895CF93DF9300D07D
:100530001F92CDB7DEB799DF86E9A3DFC0DF883130
:1005400039F084E293E013D260E070E0CB0151C057
:1005500080E097DFB4DF883239F080E393E007D2A0
:1005600060E070E0CB0145C088DF7FDFA8DF883026
:1005700039F08CE393E0FBD160E070E0CB0139C04F
:1005800087E97FDF9CDF803439F088E493E0EFD1A6
:1005900060E070E0CB012DC07EDF898390DF803585
:1005A00039F084E593E0E3D160E070E0CB0121C055
:1005B0007CDF8A8384DF883539F080E693E0D7D109
:1005C00060E070E0CB0115C058DF898190E0982F82
:1005D00088272A81822B9C838B836B817C81072EC9
:1005E000000C880B990BDAD120E030E040E85BE3A7
:1005F00010D20F900F900F900F90DF91CF91089530
:1006000048DE2FEF80E792E0215080409040E1F7F4
:1006100000C000006CDE2FEF80E792E021508040A8
:100620009040E1F700C0000080912404813009F07F
:10063000CEC0E09126048E2F90E0FC01BB97ED30F8
:10064000F10508F0BEC08827E656FF4F8F4F4DC614
:10065000B0DE8CE693E0C9D74ADEB7C095B180E240
:10066000892785B982E593E0C0D7AFC082E593E0E2
:10067000BCD7809100021F928F9382E893E09F93F2
:100680008F939BD781E593E09F938F9396D70F909D
:100690000F900F900F900F900F9097C082E593E00E
:1006A000A4D7C1E4D0E003C08C2F53D12196CA3522
:1006B000D105D4F381E593E09F938F937ED70F907C
:1006C0000F9083C082E593E090D780EA97E086DEC2
:1006D0007CC08DE090E084D78091000281110CC035
:1006E0001F928F9381E993E09F938F9366D70F902A
:1006F0000F900F900F9069C09FEF980F909300029A
:100700008ADE63C08DE090E06BD780910002843672
:1007100061F41F928F938AEB93E09F938F934DD751
:100720000F900F900F900F9050C091E0980F909302
:10073000000271DE4AC08DE090E052D7F6DE9F9352
:100740008F937F936F9383EE93E09F938F9335D72F
:100750000F900F900F900F900F900F9036C082E582
:1007600093E043D716C0809126041F928F9386EFA3
:1007700093E09F938F9321D72FEF89E698E1215043
:1007800080409040E1F700C000000F900F900F9064
:100790000F9080912604813031F3809126048230BD
:1007A00011F3809126048330F1F280912604843085
:1007B000D1F280912604815086DE82E593E015D740
:1007C00004C08EE094E011D792DD109224042FEF44
:1007D00080E792E0215080409040E1F700C00000A7
:1007E00023CF1F920F920FB60F9211242F938F9346
:1007F0009F938DB38F7E8DBB2FEF81EE94E02150C0
:1008000080409040E1F700C00000809125048F5F98
:100810008093250495B180E1892785B98CB38061E7
:100820008CBB8DB380618DBB9F918F912F910F9069
:100830000FBE0F901F9018951F920F920FB60F9238
:1008400011240BB60F922F933F934F935F936F93A7
:100850007F938F939F93AF93BF93EF93FF9380D03A
:10086000809326048091260474D081E08093240430
:10087000FF91EF91BF91AF919F918F917F916F9178
:100880005F914F913F912F910F900BBE0F900FBE34
:100890000F901F9018951F920F920FB60F92112470
:1008A0008F939F9395B180E2892785B99F918F910E
:1008B0000F900FBE0F901F9018951F920F920FB6BA
:1008C0000F9211248F939F9395B180E1892785B969
:1008D0009F918F910F900FBE0F901F9018951F92B0
:1008E0000F920FB60F9211242F935F936F937F9304
:1008F0008F939F93AF93BF93809100022FEF829FBE
:10090000C001112464E670E0C1D46093B300BF91CC
:10091000AF919F918F917F916F915F912F910F90E8
:100920000FBE0F901F9018959C0140E050E060E2D0
:1009300071EA87E090E0BDD42150310986E08093D0
:10094000CA003093CD002093CC0088E18093C90089
:1009500008959091C80095FFFCCF8093CE00089534
:100960008091C8008823E4F78091CE000895CF934A
:10097000DF93EC0102C0EDDF219688818111FBCF6E
:10098000DF91CF9108959091C80095FFFCCF80939F
:10099000CE0080E090E00895E89409C097FB3EF413
:1009A00090958095709561957F4F8F4F9F4F9923BC
:1009B000A9F0F92F96E9BB279395F695879577953A
:1009C0006795B795F111F8CFFAF4BB0F11F460FFFA
:1009D0001BC06F5F7F4F8F4F9F4F16C0882311F052
:1009E00096E911C0772321F09EE8872F762F05C066
:1009F000662371F096E8862F70E060E02AF09A9501
:100A0000660F771F881FDAF7880F9695879597F9F5
:100A100008950BD078C069D028F06ED018F09523D7
:100A200009F05AC05FC01124A2C07ED0A0F3959FE8
:100A3000D1F3950F50E0551F629FF001729FBB27C5
:100A4000F00DB11D639FAA27F00DB11DAA1F649F71
:100A50006627B00DA11D661F829F2227B00DA11D24
:100A6000621F739FB00DA11D621F839FA00D611DAA
:100A7000221F749F3327A00D611D231F849F600DCB
:100A8000211D822F762F6A2F11249F5750408AF004
:100A9000E1F088234AF0EE0FFF1FBB1F661F771F90
:100AA000881F91505040A9F79E3F510570F014C027
:100AB0005EC05F3FECF3983EDCF3869577956795D3
:100AC000B795F795E7959F5FC1F7FE2B880F911DAE
:100AD0009695879597F9089597F99F6780E870E054
:100AE00060E008959FEF80EC089500240A941616A4
:100AF000170618060906089500240A94121613060C
:100B0000140605060895092E0394000C11F4882399
:100B100052F0BB0F40F4BF2B11F460FF04C06F5FB5
:100B20007F4F8F4F9F4F089557FD9058440F551F8B
:100B300059F05F3F71F04795880F97FB991F61F05F
:100B40009F3F79F087950895121613061406551FD6
:100B5000F2CF4695F1DF08C0161617061806991F42
:100B6000F1CF86957105610508940895E894BB2737
:100B700066277727CB0197F908952F923F924F92DE
:100B80005F926F927F928F929F92AF92BF92CF921D
:100B9000DF92EF92FF920F931F93CF93DF93CDB726
:100BA000DEB760970FB6F894DEBF0FBECDBF7C01F5
:100BB0001B016A01FC0117821682838181FF2AC30F
:100BC0009E012F5F3F4F3901F7019381F10193FDA2
:100BD000859193FF81911F01882309F417C3853202
:100BE00039F493FD859193FF81911F01853231F492
:100BF000B70190E0A6D456016501E6CF10E0512C74
:100C0000912CFFE1F915D8F08B3279F038F480326D
:100C100079F08332A1F4F92DF0612EC08D3261F0AC
:100C2000803369F4292D21602DC0392D3260932E37
:100C3000892D8460982E2AC0E92DE86015C097FCA4
:100C40002DC020ED280F2A3088F496FE06C03AE029
:100C5000139F200D1124122F19C08AE0589E200DD9
:100C60001124522EE92DE0629E2E10C08E3231F4F6
:100C700096FCCCC2F92DF0649F2E08C08C3621F46E
:100C8000292D2068922E02C0883641F4F10193FD8F
:100C9000859193FF81911F018111B3CF9BEB980F39
:100CA000933020F4992D9061805E07C09BE9980FE6
:100CB000933008F059C1992D9F7E96FF16E09F73DF
:100CC000992E853619F49064992E08C0863621F441
:100CD000392F3068932E02C01111115097FE07C0B2
:100CE0001C3350F444244394410E27E00BC01830C9
:100CF00038F027E017E005C027E09CE3492E02C04A
:100D0000212F412C560184E0A80EB11CF601608110
:100D1000718182819381042DA30125D36C01F98116
:100D2000FC87F0FF02C0F3FF06C091FC06C092FEF4
:100D300006C000E205C00DE203C00BE201C000E006
:100D40008C858C7019F0011143C280C297FE10C0CF
:100D50004C0CFC85F4FF04C08A81813309F44A9469
:100D6000141474F528E0241578F588E0482E2CC07A
:100D700096FC2AC0812F90E08C159D059CF03CEFDD
:100D8000C3163FEFD30674F0892D8068982E0AC0F1
:100D9000E2E0F0E0EC0FFD1FE10FF11D80818033F8
:100DA00019F411501111F4CF97FE0EC0442443944E
:100DB000410E812F90E0C816D9062CF41C1904C0EE
:100DC0004424439401C010E097FE06C01C141D0487
:100DD00034F4C601019605C085E090E002C081E0D0
:100DE00090E001110196112331F0212F30E02F5FA7
:100DF0003F4F820F931F252D30E08217930714F485
:100E0000581A01C0512C892D897041F4552031F0B8
:100E1000B70180E290E095D35A94F8CF002321F0F7
:100E2000B701802F90E08DD393FC08C0552031F09E
:100E3000B70180E390E085D35A94F8CF97FE4AC07B
:100E40004601D7FE02C0812C912CC6018819990950
:100E5000F301E80FF91FFE87ED8796012419310988
:100E6000388B2F87012F10E01195019511093FEF65
:100E70008316930621F4B7018EE290E062D3C81482
:100E8000D9044CF08F8598898815990524F4ED854F
:100E9000FE85818101C080E3F1E08F1A91082D85E4
:100EA0003E852F5F3F4F3E872D878016910624F0A9
:100EB000B70190E046D3DBCFC814D90441F49A813E
:100EC000963320F4953319F43C8534FF81E3B70160
:100ED00090E048C08A81813319F09C859F7E9C8771
:100EE000B70190E02ED3111105C094FC16C085E621
:100EF00090E015C0B7018EE290E023D31E5F82E040
:100F000001E0080FF301E80FF11D8081B70190E0C7
:100F100018D3802F0113F4CFE8CF85E490E0B70118
:100F200010D3D7FC06C0C114D10441F4EC85E4FF12
:100F300005C0D194C194D1088DE201C08BE2B70104
:100F400090E0FFD280E32AE0C216D1042CF08F5F3C
:100F5000FAE0CF1AD108F7CFB70190E0F2D2B7018B
:100F6000C601C096EED249C1833631F0833779F09D
:100F7000833509F052C01FC0560132E0A30EB11CE8
:100F8000F6018081898301E010E0630111C0560100
:100F9000F2E0AF0EB11CF601C080D18096FE03C016
:100FA000612F70E002C06FEF7FEFC601BFD28C01EE
:100FB000F92DFF7713C0560122E0A20EB11CF601F5
:100FC000C080D18096FE03C0612F70E002C06FEF39
:100FD0007FEFC601A0D28C01F92DF0689F2EF3FDA2
:100FE00018C0852D90E00817190798F4B70180E222
:100FF00090E0A7D25A94F5CFF60197FC859197FE21
:1010000081916F01B70190E09CD251105A94015028
:1010100011090115110581F7F0C0843611F08936E8
:1010200059F5560197FE09C024E0A20EB11CF60145
:1010300060817181828193810AC0F2E0AF0EB11CA0
:10104000F60160817181072E000C880B990BF92D38
:10105000FF769F2E97FF09C09095809570956195BA
:101060007F4F8F4F9F4FF0689F2E2AE030E0A30103
:10107000ECD2C82EC6183EC0092D853721F40F7E4C
:101080002AE030E01DC0097F8F3691F018F48835D2
:1010900059F0BCC0803719F0883711F0B7C0006133
:1010A00004FF09C0046007C094FE08C0066006C0C3
:1010B00028E030E005C020E130E002C020E132E06D
:1010C000560107FF09C084E0A80EB11CF60160813B
:1010D00071818281938108C0F2E0AF0EB11CF601EC
:1010E0006081718180E090E0A301AFD2C82EC61864
:1010F0000F77902E96FE0BC0092D0E7FC11650F46F
:1011000094FE0AC092FC08C0092D0E7E05C0DC2C9E
:10111000092D03C0DC2C01C0D12E04FF0DC0FE013F
:10112000EC0DF11D8081803311F4097E09C002FFAE
:1011300006C0D394D39404C0802F867809F0D3944A
:1011400003FD10C000FF06C01C2DD51478F4150D4A
:101150001D190CC0D51450F4B70180E290E0F1D114
:10116000D394F8CFD51410F45D1801C0512C04FFAE
:101170000FC0B70180E390E0E4D102FF16C001FD8B
:1011800003C088E790E002C088E590E0B7010CC09A
:10119000802F867851F001FF02C08BE201C080E20F
:1011A00007FD8DE2B70190E0CCD1C11630F4B70154
:1011B00080E390E0C6D11150F8CFCA94F301EC0D52
:1011C000F11D8081B70190E0BCD1C110F6CF15C0F0
:1011D000F4E0F51550F584E0581A93FE1EC0011195
:1011E00025C02C8523FF27C00EE411E0392D307176
:1011F000932EF8018491811121C0552009F4FCCC73
:10120000B70180E290E09DD15A94F7CFF701868133
:10121000978123C08FEF9FEF20C0B70180E290E05D
:1012200090D15A945110F9CFDACF512CB701802FB9
:1012300090E087D1D6CF02E511E0D8CF911080524F
:10124000B70190E07ED10F5F1F4FD3CF23E025156C
:1012500010F483E0C1CF512CC4CF60960FB6F89440
:10126000DEBF0FBECDBFDF91CF911F910F91FF90D9
:10127000EF90DF90CF90BF90AF909F908F907F9036
:101280006F905F904F903F902F90089597FB072E9F
:1012900016F4009406D077FD08D02FD007FC05D0B7
:1012A0003EF4909581959F4F0895709561957F4F7D
:1012B0000895052E97FB16F400940FD057FD05D026
:1012C00030D007FC02D046F408C0509540953095C8
:1012D00021953F4F4F4F5F4F0895909580957095A2
:1012E00061957F4F8F4F9F4F0895EE0FFF1F881F0F
:1012F0008BBF0790F691E02D1994AA1BBB1B51E1FF
:1013000007C0AA1FBB1FA617B70710F0A61BB70B75
:10131000881F991F5A95A9F780959095BC01CD011A
:101320000895A1E21A2EAA1BBB1BFD010DC0AA1F26
:10133000BB1FEE1FFF1FA217B307E407F50720F03E
:10134000A21BB30BE40BF50B661F771F881F991FB9
:101350001A9469F760957095809590959B01AC0102
:10136000BD01CF010895283008F027E03327DA01C6
:10137000990F311D87FD916000966105710539F463
:1013800032602E5F3D9330E32A95E1F708959F3F49
:1013900030F080387105610509F03C5F3C5F3D939A
:1013A000913008F08068911DDF93CF931F930F93C6
:1013B000FF92EF92192F987F9695E92F9695969523
:1013C000E90FFF27E055FE4F99273327EE24FF242E
:1013D000A701E70105900894079428F4360FE71E4B
:1013E000F81E491F511D660F771F881F991F06940D
:1013F000A1F70590079428F4E70EF81E491F561F21
:10140000C11D770F881F991F661F0694A1F70590CD
:10141000079428F4F80E491F561FC71FD11D880FC7
:10142000991F661F771F0694A1F70590079420F473
:10143000490F561FC71FD81F990F661F771F881F98
:101440000694A9F784911095177041F0D695C79529
:1014500057954795F794E7941A95C1F7E6E5F1E0BB
:1014600068941590159135916591959105907FE25D
:101470007395E118F10A430B560BC90BD009C0F75D
:10148000E10CF11E431F561FC91FD01D7EF470339F
:1014900011F48A95E6CFE894015030F0080F0AF471
:1014A0000027021708F4202F2395022F7A3328F003
:1014B00079E37D932A95E9F710C07D932A9589F603
:1014C000069497956795379517951794E118F10A43
:1014D000430B560BC90BD00998F023957E91739559
:1014E0007A3308F070E37C932013B8F77E91706133
:1014F0007D9330F0839571E37D9370E32A95E1F756
:101500001124EF90FF900F911F91CF91DF919927B8
:1015100087FD90950895FC01059061507040011081
:10152000D8F7809590958E0F9F1F0895FC0161500C
:10153000704001900110D8F7809590958E0F9F1FF5
:1015400008950F931F93CF93DF93FB01238121FD18
:1015500003C08FEF9FEF2CC022FF16C0468157813A
:10156000248135814217530744F4A081B1819D0144
:101570002F5F3F4F318320838C93268137812F5FEC
:101580003F4F3783268314C08B01EC01FB0100849D
:10159000F185E02D1995892BE1F6D80116968D91EC
:1015A0009C911797019617969C938E931697CE0150
:1015B000DF91CF911F910F910895CF93DF93CDB716
:1015C000DEB7AE014A5F5F4FFA0161917191AF01E1
:1015D0008091290490912A04D0DADF91CF91089567
:1015E0006091290470912A04ACCF0F931F93CF937D
:1015F000DF93E0912904F0912A04238121FF1BC08D
:101600008C01D0E0C0E0F80181918F016091290444
:1016100070912A04DB011896ED91FC9119978823AB
:1016200031F01995892B79F3DFEFCFEFECCF8AE01A
:101630001995892B19F08FEF9FEF02C08D2F9C2FEA
:10164000DF91CF911F910F910895FA01AA272830B9
:1016500051F1203181F1E8946F936E7F6E5F7F4F7F
:101660008F4F9F4FAF4FB1E03ED0B4E03CD0670FFB
:10167000781F891F9A1FA11D680F791F8A1F911D4E
:10168000A11D6A0F711D811D911DA11D20D009F49E
:1016900068943F912AE0269F11243019305D3193E0
:1016A000DEF6CF010895462F4770405D4193B3E0C9
:1016B0000FD0C9F7F6CF462F4F70405D4A3318F070
:1016C000495D31FD4052419302D0A9F7EACFB4E021
:1016D000A6959795879577956795BA95C9F70097D9
:1016E0006105710508959B01AC010A2E069457957A
:1016F000479537952795BA95C9F7620F731F841FD1
:0A170000951FA01D0895F894FFCF77
:10170A00320000000300000000C304000000005B78
:10171A00324A005B303B33323B34306D002D2D2D85
:10172A002D2D2D2D2D2D2D2D2D2D2D2D2D2D2D2DDF
:10173A002D2D2D2D2D2D2D2D2D2D2D2D2D2D2D2DCF
:10174A002D2D0A0D004D454E553A200A0D00302028
:10175A002D204B6F6E65630A0D0031202D205072CB
:10176A0065706E69204C45443120287679706E6F19
:10177A0075742F7A61706E6F7574290A0D003220A4
:10178A002D206E69630A0D0033202D205679706969
:10179A007320696E74657A697475200A0D003420A5
:1017AA002D205679706973206162656365647520BE
:1017BA000A0D0035202D20426C696B656A2032487B
:1017CA007A200A0D0036202D20567970697320740C
:1017DA0065706C6F74750A0D0037202D2050726584
:1017EA00736E6F7374207465706C6F74792028310E
:1017FA0020617A2034290A0D00272B272F272D272D
:10180A00202D205A6D656E6120696E74657A69743F
:10181A0079204C454430200A0D005B303B33373B7E
:10182A0034306D004572726F72203138200A0D0013
:10183A004572726F72203238200A0D004572726F3B
:10184A0072203038200A0D004572726F72203430CF
:10185A00200A0D004572726F72203530200A0D0081
:10186A004572726F72203538200A0D000D0A4B6FCF
:10187A006E63696D2070726F6772616D2E2E2E20F5
:10188A000D00737472696461206573743A2025646B
:10189A00006E656C7A652C20646F73617A656E617F
:1018AA00206D617820696E74657A6974613B207372
:1018BA0074726964613A202564006E656C7A652CDD
:1018CA0020646F73617A656E61206D696E20696E3E
:1018DA0074657A6974613B207374726964613A2031
:1018EA002564007465706C6F7461206A6573743A5C
:1018FA002025660D0A007A6B757320746F207A6E44
:10190A006F767520626F2025633A200D0A000D0A52
:10191A004E657A6E616D79207072696B617A2E2ECE
:04192A00200D00008C
:00000001FF
