:10000000BEC00000DBC00000D9C00000D7C00000A7
:10001000D5C00000D3C00000D1C00000CFC0000098
:10002000CDC00000CBC00000C9C00000C7C00000A8
:10003000C5C00000C3C00000C1C00000BFC00000B8
:10004000BDC0000067C10000B9C00000B7C000001B
:10005000B5C00000B3C00000B1C00000AFC00000D8
:10006000ADC00000ABC00000A9C00000A7C00000E8
:10007000A5C00000A3C00000A1C000009FC00000F8
:100080009DC000009BC0000099C0000097C0000008
:1000900095C0000093C0000091C000008FC0000018
:1000A0008DC000008BC0000089C0000087C0000028
:1000B00085C0000083C0000081C000007FC0000038
:1000C0007DC000007BC0000079C0000077C0000048
:1000D00075C0000073C0000071C000006FC0000058
:1000E0006DC000006BC0000069C0000067C0000068
:1000F00065C0000063C0000061C000005FC0000078
:100100005DC000005BC0000059C0000057C0000087
:1001100055C0000053C0000051C000004FC0000097
:100120004DC000004BC0000049C0000047C00000A7
:1001300045C00000A7021F022F023F024C025902D5
:1001400069026F027502B602B602B602B602B602C4
:10015000B602B602B602B602B602B602B602B602DF
:10016000B602B602B602B602B602B602B602B602CF
:10017000B602B602B602B602B602B6028302112475
:100180001FBECFEFD1E8DEBFCDBF00E00CBF14E053
:10019000A0E0B2E0E4EEFBE000E00BBF02C007909D
:1001A0000D92AC39B107D9F724E0ACE9B4E001C055
:1001B0001D92AE39B207E1F7F0D112C521CF80E22E
:1001C0008093B8001092B900089584EA8093BC002F
:1001D0008091BC008823E4F7089584E98093BC00F3
:1001E0008091BC0084FDFCCF08958093BB0084E81F
:1001F0008093BC008091BC008823E4F7089584ECD0
:100200008093BC008091BC008823E4F78091BB0000
:10021000089584E88093BC008091BC008823E4F7B3
:100220008091BB000895CF93DF93CFDF80E9DDDFBE
:1002300080E0DBDFCADF81E9D8DFE1DFC82FE9DF5B
:10024000D82FCBDF8C2F90E0982F88278D2BDF9134
:10025000CF9108959093CD008093CC00E9ECF0E02D
:10026000808188618083EAECF0E080818660808311
:1002700008958091C8008823E4F78091CE00089506
:100280009091C80095FFFCCF8093CE000895CF9346
:10029000DF93EC0102C0F4DF219688818111FBCF4E
:1002A000DF91CF9108958CE090E0D4DF88DF84B1B6
:1002B000806184B984B1806284B90895CF93DF935B
:1002C000F894C0E8D0E01882E1E8F0E01082AFE6F0
:1002D000B0E01C92909389008093880080818860B0
:1002E00080838081856080838881806488838C910D
:1002F00082608C937894DF91CF910895F894109256
:10030000810010926F00E0E8F0E080818F7B8083B5
:10031000789408951F920F920FB60F9211248F9325
:100320009F9395B180E2892785B99F918F910F9016
:100330000FBE0F901F901895CF93DF93F894E0EBCA
:10034000F0E01082C1EBD0E01882109270002FEF25
:10035000829FC001112464E670E02AD16093B3004B
:1003600080818360808388818760888380818068C2
:1003700080837894DF91CF91089590910002282F87
:10038000082E000C330BA901490F511D4F3F510599
:1003900009F05CF490910002290F311D33232CF0F9
:1003A00090910002890F8093000280910002C4CFD7
:1003B000089582E092E06BDF8AE092E068DF8FE1EF
:1003C00092E065DF85E392E062DF87E492E05FDF41
:1003D0008AE592E05CDF80E792E059DF85E992E010
:1003E00056DF86EB92E053DF87ED92E050DF8FEE31
:1003F00092E04DDF89E093E04ADF2FEF84E39CE059
:10040000215080409040E1F700C0000008950F9314
:100410001F93CF93DF93CDB7DEB764970FB6F894F1
:10042000DEBF0FBECDBF90E0FC01F097E532F105D5
:1004300008F09CC08827E656FF4F8F4FCCC083E161
:1004400093E025DF809101021BDF2FEF89E698E121
:10045000215080409040E1F700C0000093C08CE341
:1004600093E015DF88E593E012DF2FEF89E698E14E
:10047000215080409040E1F700C0000083C081E639
:1004800093E005DF2FEF89E698E12150804090400E
:10049000E1F700C0000076C087E893E0F8DE2FEFB8
:1004A00089E698E1215080409040E1F700C00000CB
:1004B00069C087EA93E0EBDE84E89EE1FFDE2FEF80
:1004C00089E698E1215080409040E1F700C00000AB
:1004D00059C084EC93E0DBDE8AE04FDF53C08FED40
:1004E00093E0D5DE86EF49DF4DC08AEF93E0CFDEA3
:1004F00005DF2FEF89E698E1215080409040E1F739
:1005000000C000003FC08EE194E0C1DE8CDE9F930E
:100510008F9387E494E09F938F931F9284E18F934E
:100520008E010F5F1F4F1F930F9371D0C801AFDE75
:100530002FEF89E698E1215080409040E1F700C01C
:1005400000000FB6F894DEBF0FBECDBF1BC08DE517
:1005500094E09DDE10929D049FEF29E688E1915082
:1005600020408040E1F700C000000CC08FE694E01E
:100570008EDE9FEF29E688E1915020408040E1F730
:1005800000C0000064960FB6F894DEBF0FBECDBF6A
:10059000DF91CF911F910F91089585DE10DE789441
:1005A00008DF67DE80939C0480919C0430DFF8CFE5
:1005B00097FB072E16F4009406D077FD08D013D0D1
:1005C00007FC05D03EF4909581959F4F0895709556
:1005D00061957F4F0895EE0FFF1F881F8BBF079017
:1005E000F691E02D1994AA1BBB1B51E107C0AA1F6D
:1005F000BB1FA617B70710F0A61BB70B881F991FC4
:100600005A95A9F780959095BC01CD0108950F9357
:100610001F93CF93DF93CDB7DEB72E970FB6F89425
:10062000DEBF0FBECDBF0E891F89888D998D26E054
:100630002C831A83098397FF02C080E090E801971A
:100640009E838D83AE01445E5F4F6A8D7B8DCE01AC
:10065000019619D04D815E8157FD0AC02F813885E2
:10066000421753070CF49A01F801E20FF31F1082AE
:100670002E960FB6F894DEBF0FBECDBFDF91CF919F
:100680001F910F9108952F923F924F925F926F9218
:100690007F928F929F92AF92BF92CF92DF92EF9212
:1006A000FF920F931F93CF93DF93CDB7DEB72B97B6
:1006B0000FB6F894DEBF0FBECDBF6C017B018A017F
:1006C000FC0117821682838181FFBFC1CE01019692
:1006D0003C01F6019381F70193FD859193FF819190
:1006E0007F01882309F4ADC1853239F493FD8591EA
:1006F00093FF81917F01853221F4B60190E0D6D13C
:10070000E8CF912C212C312CFFE1F315D8F08B325E
:1007100079F038F4803279F08332A1F4232D20610E
:100720001DC08D3261F0803369F4232D216016C025
:10073000832D8260382EE32DE4603E2E2AC0F32DF7
:10074000F8601DC037FC2DC020ED280F2A3040F086
:100750008E32B9F436FC75C1232D2064322E19C0B7
:1007600036FE06C08AE0989E200D1124922E11C0FC
:10077000EAE02E9E200D1124222EF32DF0623F2E52
:1007800008C08C3621F4832D8068382E02C088364C
:1007900041F4F70193FD859193FF81917F018111D0
:1007A000B3CF982F9F7D9554933028F40C5F1F4F43
:1007B0009FE399830DC0833631F0833771F0833521
:1007C00009F055C020C0F801808189830E5F1F4F5A
:1007D00088248394912C530112C02801F2E04F0E1B
:1007E000511CF801A080B18036FE03C0692D70E075
:1007F00002C06FEF7FEFC5014ED14C018201F32D96
:10080000FF773F2E15C0280122E0420E511CF8014F
:10081000A080B18036FE03C0692D70E002C06FEF8A
:100820007FEFC5012DD14C01F32DF0683F2E8201E1
:1008300033FC19C0822D90E088169906A0F4B60109
:1008400080E290E033D12A94F5CFF50137FC859111
:1008500037FE81915F01B60190E028D121102A94E2
:1008600021E0821A91088114910479F7E1C084365D
:1008700011F0893639F5F80137FE07C060817181C2
:10088000828193810C5F1F4F08C060817181072EA8
:10089000000C880B990B0E5F1F4FF32DFF763F2E38
:1008A00097FF09C090958095709561957F4F8F4F08
:1008B0009F4FF0683F2E2AE030E0A30133D1882E0D
:1008C000861844C0853731F4232D2F7EB22E2AE0BE
:1008D00030E025C0932D997FB92E8F36C1F018F4E2
:1008E000883579F0AEC0803719F0883721F0A9C07B
:1008F000E92FE061BE2EB4FE0DC0FB2DF460BF2ECB
:1009000009C034FE0AC0292F2660B22E06C028E096
:1009100030E005C020E130E002C020E132E0F80123
:10092000B7FE07C060817181828193810C5F1F4F88
:1009300006C06081718180E090E00E5F1F4FA301CF
:10094000F1D0882E8618FB2DFF773F2E36FE0DC086
:10095000232D2E7FA22E891458F434FE0BC032FCB6
:1009600009C0832D8E7EA82E05C0B82CA32C03C0F1
:10097000B82C01C0B92CA4FE0FC0FE01E80DF11D7A
:100980008081803321F49A2D997EA92E09C0A2FE80
:1009900006C0B394B39404C08A2D867809F0B3944A
:1009A000A3FC10C0A0FE06C0B21480F4280C922C48
:1009B0009B180DC0B21458F4B60180E290E076D0D6
:1009C000B394F8CFB21418F42B1802C0982C212C31
:1009D000A4FE0FC0B60180E390E068D0A2FE16C06E
:1009E000A1FC03C088E790E002C088E590E0B60172
:1009F0000CC08A2D867851F0A1FE02C08BE201C0A6
:100A000080E2A7FC8DE2B60190E050D0891430F46A
:100A1000B60180E390E04AD09A94F8CF8A94F3012B
:100A2000E80DF11D8081B60190E040D08110F6CF35
:100A3000222009F44ECEB60180E290E037D02A940D
:100A4000F7CFF6018681978102C08FEF9FEF2B963B
:100A50000FB6F894DEBF0FBECDBFDF91CF911F91CF
:100A60000F91FF90EF90DF90CF90BF90AF909F904D
:100A70008F907F906F905F904F903F902F90089550
:100A8000FC010590615070400110D8F78095909559
:100A90008E0F9F1F0895FC0161507040019001105E
:100AA000D8F7809590958E0F9F1F08950F931F93F1
:100AB000CF93DF93FB01238121FD03C08FEF9FEFD5
:100AC0002CC022FF16C046815781248135814217F0
:100AD000530744F4A081B1819D012F5F3F4F3183C3
:100AE00020838C93268137812F5F3F4F3783268366
:100AF00014C08B01EC01FB010084F185E02D1995F8
:100B0000892BE1F6D80116968D919C911797019645
:100B100017969C938E931697CE01DF91CF911F91DC
:100B20000F910895FA01AA27283051F1203181F15F
:100B3000E8946F936E7F6E5F7F4F8F4F9F4FAF4FE5
:100B4000B1E03ED0B4E03CD0670F781F891F9A1FF8
:100B5000A11D680F791F8A1F911DA11D6A0F711DAC
:100B6000811D911DA11D20D009F468943F912AE0B8
:100B7000269F11243019305D3193DEF6CF010895A0
:100B8000462F4770405D4193B3E00FD0C9F7F6CFD1
:100B9000462F4F70405D4A3318F0495D31FD405299
:100BA000419302D0A9F7EACFB4E0A695979587952F
:100BB00077956795BA95C9F700976105710508950E
:100BC0009B01AC010A2E06945795479537952795BA
:100BD000BA95C9F7620F731F841F951FA01D089552
:040BE000F894FFCFB7
:100BE40080411B5B324A1B5B48000A53656C65639A
:100BF4007420616E206F7074696F6E3A0D0A003153
:100C04002E2053686F77204120285069736D656EDC
:100C14006F290D0A00322E2053686F77204142431A
:100C2400444546470D0A00332E20456E74657220F4
:100C34005375626D656E750D0A00342E204F707405
:100C4400696F6E20342028426C616E6B290D0A0096
:100C5400352E2047656E65726174652032487A20AE
:100C64004672657175656E6379202854696D657285
:100C740031290D0A00362E20496E63726561736551
:100C84002050574D204272696768746E65737320F3
:100C9400282B290D0A00372E204465637265617381
:100CA400652050574D204272696768746E6573738E
:100CB40020282D290D0A00382E2053746F702032FD
:100CC400487A204672657175656E63790D0A00393C
:100CD4002E20526561642054656D7065726174756F
:100CE4007265202854290D0A00302E204578697435
:100CF4000D0A00596F752073656C65637465642013
:100D04004F7074696F6E20313A2053686F772041B9
:100D140020285069736D656E6F290A00596F75201C
:100D240073656C6563746564204F7074696F6E20BD
:100D3400323A2053686F7720414243444546470A7C
:100D440000596F752073656C6563746564204F701A
:100D540074696F6E20333A20456E74657220537542
:100D6400626D656E750A00596F752073656C6563F5
:100D7400746564204F7074696F6E20343A20284281
:100D84006C616E6B290A0047656E65726174696EE9
:100D9400672032487A206672657175656E63792EB4
:100DA4002E2E0A00496E6372656173696E67205066
:100DB400574D204272696768746E6573730A004404
:100DC400656372656173696E672050574D20427286
:100DD400696768746E6573730A0053746F70706921
:100DE4006E672032487A206672657175656E637924
:100DF4002067656E65726174696F6E2E0A00596FA3
:100E0400752073656C6563746564204F7074696FD5
:100E14006E20543A20526561642054656D70657289
:100E240061747572650A0054656D706572617475DC
:100E340072653A20252E326620B0430A004578694F
:100E440074696E672070726F6772616D2E0A004953
:100E54006E76616C6964206F7074696F6E212050C6
:100E64006C656173652073656C656374206167618B
:0C0E7400696E2E0A0048656C6C6F00006F
:00000001FF
